:100000003DC1000058C1000056C1000054C10000AD
:1000100052C1000050C100004EC100004CC10000A0
:100020004AC1000048C1000046C1000044C10000B0
:1000300042C1000040C100003EC100003CC10000C0
:100040000C943F0938C1000036C1000034C10000E3
:1000500032C1000030C100002EC100002CC10000E0
:100060002AC1000028C1000026C1000024C10000F0
:1000700022C1000020C100001EC100001CC1000000
:100080001AC1000018C1000016C1000014C1000010
:1000900012C1000010C100000EC100000CC1000020
:1000A0000AC1000008C1000006C1000004C1000030
:1000B00002C1000000C10000FEC00000FCC0000042
:1000C000FAC00000F8C00000F6C00000F4C0000054
:1000D000F2C00000F0C00000EEC00000ECC0000064
:1000E000EAC00000E8C00000E6C00000E4C0000074
:1000F000E2C00000E0C00000DEC00000DCC0000084
:10010000DAC00000D8C00000D6C00000D4C0000093
:10011000D2C00000D0C00000CEC00000CCC00000A3
:10012000CAC00000C8C00000C6C00000C4C00000B3
:10013000C2C00000C0C00000BEC00000BCC00000C3
:10014000BAC00000B8C00000B6C00000B4C00000D3
:10015000B2C00000B0C00000AEC00000ACC00000E3
:10016000AAC00000A8C00000A6C00000A4C00000F3
:10017000A2C00000A0C000009EC000009CC0000003
:100180009AC0000098C0000096C0000094C0000013
:1001900092C0000090C000008EC000008CC0000023
:1001A0008AC0000088C0000086C0000084C0000033
:1001B00082C0000080C000007EC000007CC0000043
:1001C0007AC0000078C0000076C0000074C0000053
:1001D00072C0000070C000006EC000006CC0000063
:1001E0006AC0000068C0000066C0000064C0000073
:1001F00062C00000A9C20000EEC200003561663492
:1002000032323700312E30001203540061006B008F
:100210006B00540069006C00650000002A03540064
:10022000680065002000420069006F0072006F00E6
:1002300062006F00740069006300730020004C00CE
:1002400061006200000004030904090220000101AA
:100250000080FA0904000002FF0000000705810287
:100260004000000705020220000012011001FF00FB
:100270000040E359C77400020102DC0111241FBED3
:10028000CFEFDFE2DEBFCDBF10E2A0E0B0E2EEE4F0
:10029000FAE102C005900D92A833B107D9F726E222
:1002A000A8E3B0E201C01D92A93EB207E1F70E94A7
:1002B000230C0C94250DA4CE089580E00895CF93CF
:1002C000DF93C0ECD1E022E02A87EAE1F0E0E4919C
:1002D000A0ECB4E0DA96EC93DA972A87EBE1F0E051
:1002E000E491DB96EC93DB9783E0E0E4F0E0848339
:1002F000E0E0F0E21696ED93FC93179713961C92AC
:100300001397108233E43093012081E890E28093C8
:1003100004209093052020930820309309208FE338
:1003200090E280930C2090930D2082EC8C93119698
:100330008C911197816011968C93DF91CF910895E4
:1003400083E0E0E4F0E08483A0E0B0E2E0ECF4E0FD
:10035000A683B78313821C9223E42093012081E8B3
:1003600090E2809304209093052082E080930820FF
:10037000209309208FE390E280930C2090930D202E
:1003800082EC808381818160818308950F93109234
:10039000CA0161157105E1F09C01260F371F4FE37B
:1003A00050E2DA01FC010196E491ED938217930784
:1003B000C9F7772740930C2050930D2060930A20B3
:1003C00070930B20E8E0F0E202E206930F910895AB
:1003D0004FE350E2EECF84E08093560082E08093BA
:1003E000CA01ECE1F0E0E491E09363008BE18093DB
:1003F000650087EB8093660081E08093600088ED64
:1004000084BF83E0809350008091510081FFFCCF36
:1004100080E18093550088ED84BF83E18093500094
:100420008091510084FFFCCF81E08093680088EDCB
:1004300084BF84E0809340001092410008950F93A0
:10044000CF93DF9300D0CDB7DEB780918120807647
:1004500069F480918220863009F4C3C080F089302D
:1004600009F449C030F5883009F47DC081E890E294
:1004700082D70F900F90DF91CF910F910895813027
:1004800029F108F086C010923F20109240208FE39F
:1004900090E280930C2090930D2082E090E0809376
:1004A0000A2090930B20E8E0F0E202E2069381E05C
:1004B000E0CF8A3009F450C08B30C1F660918320C0
:1004C00080918520FADE882309F446C08FE390E20C
:1004D00080930C2090930D2010920A2010920B20F4
:1004E000E8E0F0E202E2069381E00F900F90DF91E6
:1004F000CF910F910895AE014F5F5F4F60E080E0B4
:1005000091E00E94E20B882339F11092CA01E9813F
:10051000FA817196E49120918320E217E8F08FE34D
:1005200090E280930C2090930D2010920A2010925C
:100530000B20E8E0F0E202E2069320938020809115
:100540008020882309F4AEC084E080937F208091CE
:100550008020D7D081E08DCF80E00F900F90DF9189
:10056000CF910F9108958091802080933F208FE359
:1005700090E280930C2090930D2081E090E0809396
:100580000A2090930B20E8E0F0E202E2069381E07B
:1005900070CF833009F49ACF853009F067CF20916E
:1005A00083202F77E0E0F0E202E706938FE390E20A
:1005B00080930C2090930D2010920A2010920B2013
:1005C000E8E0F0E202E206938091082085FFFCCF8C
:1005D0002093C304211152C082E080937F2081E0E8
:1005E00048CF1092CA0180918320909184208C3D45
:1005F00023E09207C1F0AE014F5F5F4F609185200D
:100600000E94E20B009709F4A7CF20918720309138
:100610008820BC012817390708F4B90189819A811B
:10062000B5DE81E026CF83E0809340208AE380938B
:100630003F2082E08093CA01E8E0F0E0E491A1E489
:10064000B0E280E098E022E0EF70EA30A0F0F0E065
:10065000F796ED93FD938F5F8C3191F02093CA0153
:10066000E92FF0E0E49180FFEFCFE295EF709F5F1C
:10067000EF70EA3060F7F0E0F096EBCF83E0ADCFBB
:100680008FE390E280930C2090930D208AE390E01A
:1006900080930A2090930B20E8E0F0E202E20693B8
:1006A00081E0E7CE8091C304882321F084E0809329
:1006B0007F204DCF81E0FBCF909182049260909398
:1006C00082048093860480FF13C08091840487FF96
:1006D000FCCF8091830483608093830480918404A1
:1006E00084FB222720F930E081E02827822F08951B
:1006F0008091840486FDEDCF8091840486FFF8CF3D
:10070000E8CF2FB7F8941092342089EE92E28093CC
:10071000322090933320809330209093312086E0D4
:100720008093182083E9809319201092112082E091
:100730008093102010923A2010923B2010923C207F
:1007400010923D202FBF08951F920F920FB60F9267
:1007500011242F933F934F935F936F937F938F93C6
:100760009F93AF93BF93EF93FF938091CA0487FD4C
:100770002EC08091CA048E7091F48091CA0480FDCD
:1007800022C080E78093CA048091C20480FF0AC01F
:100790008091C2048E7F8093C20491DD03C08EE0FD
:1007A0008093CA04FF91EF91BF91AF919F918F9178
:1007B0007F916F915F914F913F912F910F900FBE5D
:1007C0000F901F90189581E08093CA04EBCF80E8CA
:1007D0008093CA04E7CF1F920F920FB60F92112495
:1007E0000F932F933F934F935F936F937F938F93C9
:1007F0009F93AF93BF93EF93FF931092C40483E052
:100800008093CC045FB7F894E8E1F0E2809118207F
:100810008670C9F45FBF8091002084FD49C085FDCA
:1008200062C0FF91EF91BF91AF919F918F917F91A6
:100830006F915F914F913F912F910F910F900FBE4C
:100840000F901F9018954091342014160CF057C04B
:10085000809130209091312030913A2021E023275F
:1008600020933A20332391F1809314209093152004
:1008700020E430E0209312203093132004E106930B
:10088000415040933420805C9F4F80933020909360
:100890003120895E944209F0BDCF89EE92E28093C7
:1008A0003020909331205FBF8091002084FFB7CF2C
:1008B000C6DD81111FC080910120846080930120DA
:1008C0008091092084608093092014C080931C20AB
:1008D00090931D2020E430E020931A2030931B20B9
:1008E00002E20693CDCF609102207091032081E84F
:1008F00090E2E2DCE0E0F0E202E7069392CF2091A2
:100900003B202130E1F0223009F084CF8091182083
:100910008670863009F07ECF10923B2010923C20EA
:1009200010923D201092342089EE92E28093322082
:100930009093332080933020909331206BCF82E0CE
:1009400080933B2080913C2090913D20609130200D
:100950004091312030913A20232720933A20262FAE
:1009600031110CC0342F20931C2030931D20809314
:100970001A2090931B2002E206934CCF342F209331
:10098000142030931520809312209093132004E1BB
:10099000069340CF9091820492609093820480935A
:1009A000860480FF15C08091840487FFFCCF6623F6
:1009B00029F0809183048360809383048091840470
:1009C00084FB222720F930E081E02827822F089538
:1009D0008091840486FDEBCF8091840486FFF8CF5C
:1009E000E6CF909183049B7F9093830491E0909352
:1009F0008204E82FF0E0EF53FD4D90819F3F31F0EE
:100A00008091830483608093830408952DEC829FFA
:100A1000212D112426952695922F990F990F920F2B
:100A2000891B880F90E1299F90011124822B9091BE
:100A3000820492609093820480938604909184044F
:100A400096FFFCCF909183049360909383049091E0
:100A500084049091820492609093820490EC90932D
:100A600086049091840496FFFCCF9091840491E0D9
:100A70009093820494E0909387049091840496FF6D
:100A8000FCCF9091830493609093830491EC9093B6
:100A900086049091840497FFFCCF909187049093F3
:100AA0003F2020E09091840497FFFCCF2630F1F4A2
:100AB000909183049760909383049091870490931E
:100AC000462091E09827809182048260809382047E
:100AD000909386048091840487FFFCCF80918304E7
:100AE0008360809383048091840408952F5F28306D
:100AF00041F390918704E22FF0E0E15CFF4D908399
:100B0000273081F6DECFEF92FF920F931F93CF93A2
:100B1000DF93E1ECF2E280E090E051E01DEC70EC5C
:100B200061EC0AC020918304236020938304019622
:100B30008832910509F480C0482F209183042B7FCF
:100B4000209383045093820421912F3F59F7819F72
:100B5000212D112426952695322F330F330F320F76
:100B6000431B440FA0E12A9F90011124422B2091A6
:100B7000820422602093820440938604209184049E
:100B800026FFFCCF209183042360209383042091CF
:100B9000840420918204226020938204709386044E
:100BA0002091840426FFFCCF20918404509382047A
:100BB000109287042091840426FFFCCF20918304A7
:100BC000236020938304609386042091840427FF8C
:100BD000FCCF20918704DC01AA0FBB1FAA0FBB1F0B
:100BE000A751BB4D2C9330E02091840427FFFCCF0C
:100BF000323009F0DEC02091830427602093830403
:100C00002091870413962C9345272091820422601B
:100C100020938204409386042091840427FFFCCF14
:100C200020918304236020938304209184040196FF
:100C30008832910509F080CF8091352090E0809531
:100C4000909520913E2030E082239323892B09F454
:100C500095C0C9EED4E2E8E1F0E216E049EE52E2D6
:100C600072E0E72E20E430E079919FB7F89480910C
:100C70003B20882309F4ABC080E09FBF8823A9F301
:100C800080913C2090913D20A0913220B091332062
:100C9000A80FB91F7C93019680933C2090933D2030
:100CA0008034910509F49CC085E2C938D807E1F683
:100CB000C1ECD0E216E049EE52E262E0E62E20E41A
:100CC00030E079919FB7F89480913B20882309F414
:100CD0002AC180E09FBF8823A9F380913C20909196
:100CE0003D20A0913220B0913320A80FB91F7C93F2
:100CF000019680933C2090933D208034910509F427
:100D00001BC181E2C136D807E1F631E030933B20C8
:100D10006FB7F89480911820867009F0B9C16FBF41
:100D200082E08093CD0496E02FB7F89480913B2029
:100D3000882309F4A4C180E02FBF81111FC08091D6
:100D40003520882389F32FB7F8941092342089EE48
:100D500092E28093322090933320809330209093BE
:100D6000312006E0059308E0069310923B20109294
:100D70003C2010923D2010923A202FBF80913620C7
:100D8000882381F080EA90E080931401909315010C
:100D90008091100180688093100180911001806122
:100DA00080931001DF91CF911F910F91FF90EF90F1
:100DB00008953F5F343009F427CF20918704ED0177
:100DC000C30FD11D2883333009F00ECF1DCF809182
:100DD0003420612F681B81E016160CF44ECF4CCFE7
:100DE000AFB7F89410923C2010923D2080913420AF
:100DF0008F5F809334208091322090913320805CEB
:100E00009F4F8093322090933320895E944221F447
:100E10004093322050933320FFB6F89480911820ED
:100E2000867019F4FFBEAFBF3FCF70913420171604
:100E300094F58091302090913120B0913A2061E07A
:100E40006B2760933A20B1111BC080931C209093B4
:100E50001D2020931A2030931B2002E2069371502C
:100E600070933420805C9F4F80933020909331208A
:100E7000895E9442B9F64093302050933120D2CF0E
:100E800080931420909315202093122030931320E8
:100E900004E10693E4CF80913B208130D1F0823091
:100EA00009F0C0CF809118208670863009F0BACF43
:100EB00010923B2010923C2010923D201092342042
:100EC0004093322050933320409330205093312070
:100ED000A9CFE0923B2060913C2070913D20009191
:100EE0003020B091312090913A20892780933A2088
:100EF000802F91110CC09B2F80931C2090931D205C
:100F000060931A2070931B2002E206938BCF9B2FD5
:100F100080931420909315206093122070931320D7
:100F200004E106937FCF80913420612F681B81E01C
:100F300016160CF4CFCECDCEAFB7F89410923C205D
:100F400010923D20809134208F5F809334208091D7
:100F5000322090913320805C9F4F80933220909379
:100F60003320895E944221F4409332205093332001
:100F7000FFB6F89480911820867019F4FFBEAFBFB9
:100F8000C0CE70913420171694F580913020909146
:100F90003120B0913A2061E06B2760933A20B11183
:100FA0001BC080931C2090931D2020931A20309307
:100FB0001B2002E20693715070933420805C9F4F97
:100FC0008093302090933120895E9442B9F640930B
:100FD000302050933120D2CF80931420909315204D
:100FE000209312203093132004E10693E4CF8091E4
:100FF0003B208130D1F0823009F0C0CF80911820A1
:101000008670863009F0BACF10923B2010923C20B7
:1010100010923D2010923420409332205093332080
:101020004093302050933120A9CFE0923B20609133
:101030003C2070913D2000913020B0913120909162
:101040003A20892780933A20802F91110CC09B2F42
:1010500080931C2090931D2060931A2070931B2076
:1010600002E206938BCF9B2F809314209093152040
:10107000609312207093132004E106937FCF809138
:101080003420392F381B81E013160CF455CE53CE83
:101090004091342014160CF038C08091302090918B
:1010A000312020913A20322730933A20211120C05C
:1010B00080931C2090931D2020E430E020931A2080
:1010C00030931B2002E20693415040933420805C11
:1010D0009F4F8093302090933120895E944209F095
:1010E0001ECE89EE92E2809330209093312017CE6D
:1010F000809314209093152020E430E02093122058
:101100003093132004E10693DFCF80913B208130A0
:10111000E1F0823009F003CE80911820867086308D
:1011200009F0FDCD10923B2010923C2010923D2002
:101130001092342089EE92E28093322090933320F3
:101140008093302090933120EACD92E090933B2021
:1011500020913C2030913D20509130204091312011
:1011600090913A20892780933A20852F91110CC0C5
:10117000942F80931C2090931D2020931A2030934D
:101180001B2002E20693CBCD942F809314209093E2
:101190001520209312203093132004E10693BFCD35
:1011A0008FE39FE10197F1F700C0000021EC32E2EC
:1011B000F9015DEC70EC61E0AFEF4E2F421B459FF3
:1011C000812D112486958695982F990F990F980F48
:1011D000491B440FB0E18B9FC0011124482B809123
:1011E0008204826080938204409386048091840408
:1011F00086FFFCCF80918304836080938304809179
:10120000840484FF06C0319682E2E93EF807A9F61D
:10121000089585E38A95F1F7000080918204826049
:1012200080938204709386048091840486FFFCCFAF
:10123000809183048360809383048091840484FF7D
:101240001CC095E39A95F1F700004627809182042F
:10125000826080938204409386048091840487FF97
:10126000FCCF809183048360809383048091840405
:10127000B5E3BA95F1F70000C6CFA083E2CF1F9285
:101280000F920FB60F9211242F933F934F935F93BA
:101290006F937F938F939F93AF93BF93CF93DF937E
:1012A000EF93FF9330DC809182048260809382040C
:1012B0008CE0809386048091840486FFFCCF80912B
:1012C0008304836080938304809184048295817079
:1012D000C82F80E0D82F81E0C827809182048260E7
:1012E0008093820480EC809386048091840486FF3E
:1012F000FCCF8091840482E18093870480918404F0
:1013000086FFFCCF81E0809387048091840486FF70
:10131000FCCF80918304836080938304C130B9F053
:101320001092200810922108FF91EF91DF91CF9148
:10133000BF91AF919F918F917F916F915F914F91ED
:101340003F912F910F900FBE0F901F901895809195
:1013500082048260809382048DE080938604809171
:10136000840487FFFCCF809183048360809383048F
:1013700080918404D5CFCF92DF92EF92FF920F93AA
:10138000CF93DF937C01CFE3D0E26E01FE01119297
:1013900080E2EF37F807D9F710923920D7018C9106
:1013A0008076803449F080E0DF91CF910F91FF90FB
:1013B000EF90DF90CF90089511968C918D3609F4BF
:1013C0006DC008F43DC08B3B09F436C1873C09F47D
:1013D000BEC08A3B41F7D70112968D919C9113971D
:1013E00014963C91209182042260209382043093D1
:1013F000860430FF37C02091840427FFFCCF892B5F
:1014000029F0809183048360809383048091840415
:1014100084FB662760F970E0B1E06B2760933F20A2
:10142000C0920C20D0920D2081E090E080930A20A1
:1014300090930B20E8E0F0E202E2069381E0B4CF63
:101440008C3509F465C08C36B1F08111ACCFF70151
:1014500084819581009709F44BC1019709F4A0C1DB
:1014600081E0A2CF2091840426FDC9CF209184047D
:1014700026FFF8CFC4CFF7018481B3DAC0920C20E5
:10148000D0920D2088E090E080930A2090930B206A
:10149000E8E0F0E202E2069381E086CFD7011496FD
:1014A0008D919C9115978F3F910509F429C18F303B
:1014B000910509F47DC1892BF1F6CE018F5390423D
:1014C000D7011296ED91FC9113970024F695E795BC
:1014D0000794F695E7950794FE2FE02DE80FF91F86
:1014E000E751FB4D80818993B0E2CF37DB0729F7C5
:1014F000C0920C20D0920D2080E490E080930A20CE
:1015000090930B20E8E0F0E202E2069381E04CCFFA
:1015100047DEEFE3FCE93197F1F700C00000E1ECB2
:10152000F2E28191899322E2E93EF207D1F7C0927B
:101530000C20D0920D2088E290E080930A209093B6
:101540000B20E8E0F0E202E2069381E02DCFF70104
:1015500084819581892B09F4A0C080E090E8809374
:1015600026089093270880918204826080938204E9
:101570008CE0809386048091840486FFFCCF809168
:1015800083048360809383048091840484FB4427D4
:1015900040F950E0F1E04F2780918204826080930F
:1015A000820480EC809386048091840486FFFCCFC3
:1015B0008091840482E1809387048091840486FF73
:1015C000FCCF81E0809387048091840486FFFCCF68
:1015D00080918304836080938304413009F4EEC0DA
:1015E00081E080933F202FB7F8941092342089EE49
:1015F00092E2809332209093332080933020909316
:101600003120E8E1F0E206E0059308E0069310924D
:101610003B2010923C2010923D2010923A202FBF88
:1016200010923520D70112968D919C91139780933B
:1016300028089093290857C0F894C0920C20D092A3
:101640000D2010920A2010920B20E8E0F0E202E256
:101650000693E0E0F0E202E706938091002085FF28
:10166000FCCFFFEF29EF80E0F15020408040E1F710
:1016700000C000008091C1048E7F8093C1049FEF61
:10168000A3ECB9E09150A040B040E1F700C00000E9
:10169000ECEFF7E4099581E087CE109226081092CE
:1016A000270810923F202FB7F8941092342089EE2B
:1016B00092E2809332209093332080933020909355
:1016C0003120E8E1F0E206E0059308E0069310928D
:1016D0003B2010923C2010923D2010923A202FBFC8
:1016E00081E080933520109220081092210898CE36
:1016F00064E070E084E092E00E94C60181E054CE94
:10170000809182048260809382048CE080938604BE
:101710008091840486FFFCCF809183048360809352
:1017200083048091840484FB222720F930E0B1E017
:101730002B278091820482608093820480EC8093C6
:1017400086048091840486FFFCCF8091840482E12A
:10175000809387048091840486FFFCCF81E080938E
:1017600087048091840486FFFCCF8091830483608A
:10177000809383042130F1F0EFE7FEE33197F1F736
:1017800000C00000C0920C20D0920D2010920A20C0
:1017900010920B20E8E0F0E202E2069381E004CE32
:1017A00068E070E08CEF91E00E94C60181E0FCCD22
:1017B000AAD9E8CF8DE00E945C03DECF8DE00E94C5
:1017C0005C030ECF292F33272230310539F1233026
:1017D0003105A9F02130310549F020E030E080E00A
:1017E00090E0FA0180839183C901089522E130E0FD
:1017F0008AE692E0FA0180839183C90108959927CE
:1018000081309105A1F082309105B9F0892B29F73B
:10181000E6E4F2E0249130E0CF01E3CF20E230E0D3
:101820008AE492E0FA0180839183C9010895ECE192
:10183000F2E0249130E0CF01D4CFE8E0F2E024914F
:1018400030E0CF01CECF82E08093E1078093E507BF
:10185000EFE3FCE93197F1F700C000008093E60761
:10186000FFEF23EC89E0F15020408040E1F700C019
:10187000000081E0809382069091880690FF04C06A
:1018800080933E20109236200E94EB010E945F015F
:1018900080913E20882331F082E48093C80483E065
:1018A0008093C90423E02093A20078948BE0809376
:1018B000850438E03093810481E08093840496E0CD
:1018C0009093000893E1909301088093070888E7BC
:1018D00090E080932808909329081092260810928F
:1018E00027083093810684E0809382061092A60A2E
:1018F0001092A70A2093A50A20913E20222329F0C6
:101900008091A40A80618093A40A90913620992343
:1019100029F08091A40A88608093A40A80E88093CB
:101920000001992321F180ED809312018CE88093CE
:10193000130189EE94E280931801AA2797FDA095E0
:10194000BA2F492F5A2F6B2F772740931901CD01BA
:10195000AA27BB2780931A0180EA80931C018AE0A2
:1019600080931D0110921E0184E8809310012223B0
:1019700061F18DE0809322018BE88093230180EA5E
:10198000809328018AE08093290110922A0181EC3A
:1019900090E280932C01AA2797FDA095BA2F492F9A
:1019A0005A2F6B2F772740932D01CD01AA27BB27F4
:1019B00080932E0180EA90E080932401909325018A
:1019C0001092260184EA80932001EADB8091362080
:1019D000882381F1109220081092210880E090E87D
:1019E00080932608909327088CE00E945C039091D6
:1019F000820492609093820490EC9093860490917C
:101A0000840496FFFCCF9091840492E19093870424
:101A10009091840496FFFCCF91E09093870490917D
:101A2000840496FFFCCF9091830493609093830489
:101A3000813021F082E08093E507FFCF8DE00E94A6
:0E1A40005C0382E08093E507F8CFF894FFCFB7
:101A4E000000000000000000000000000000000088
:101A5E000000000000000000000000000000000078
:101A6E000000000000000000000000000000000068
:081A7E00E922E9220001010048
:00000001FF
